{
  "contractName": "SimpleBank",
  "abi": [
    {
      "inputs": [],
      "payable": true,
      "stateMutability": "payable",
      "type": "constructor"
    },
    {
      "anonymous": false,
      "inputs": [
        {
          "indexed": true,
          "internalType": "address",
          "name": "accountAddress",
          "type": "address"
        },
        {
          "indexed": false,
          "internalType": "uint256",
          "name": "amount",
          "type": "uint256"
        }
      ],
      "name": "LogDepositMade",
      "type": "event"
    },
    {
      "anonymous": false,
      "inputs": [
        {
          "indexed": false,
          "internalType": "string",
          "name": "",
          "type": "string"
        }
      ],
      "name": "alert",
      "type": "event"
    },
    {
      "constant": true,
      "inputs": [],
      "name": "owner",
      "outputs": [
        {
          "internalType": "address",
          "name": "",
          "type": "address"
        }
      ],
      "payable": false,
      "stateMutability": "view",
      "type": "function"
    },
    {
      "constant": true,
      "inputs": [
        {
          "internalType": "address",
          "name": "",
          "type": "address"
        }
      ],
      "name": "users",
      "outputs": [
        {
          "internalType": "string",
          "name": "name",
          "type": "string"
        },
        {
          "internalType": "uint256",
          "name": "balances",
          "type": "uint256"
        }
      ],
      "payable": false,
      "stateMutability": "view",
      "type": "function"
    },
    {
      "constant": false,
      "inputs": [
        {
          "internalType": "string",
          "name": "_name",
          "type": "string"
        }
      ],
      "name": "createAccount",
      "outputs": [],
      "payable": true,
      "stateMutability": "payable",
      "type": "function"
    },
    {
      "constant": false,
      "inputs": [],
      "name": "deposit",
      "outputs": [],
      "payable": true,
      "stateMutability": "payable",
      "type": "function"
    },
    {
      "constant": false,
      "inputs": [],
      "name": "withdraw",
      "outputs": [],
      "payable": true,
      "stateMutability": "payable",
      "type": "function"
    },
    {
      "constant": false,
      "inputs": [],
      "name": "verifyBal",
      "outputs": [],
      "payable": true,
      "stateMutability": "payable",
      "type": "function"
    },
    {
      "constant": true,
      "inputs": [],
      "name": "getBalance",
      "outputs": [
        {
          "internalType": "uint256",
          "name": "",
          "type": "uint256"
        }
      ],
      "payable": false,
      "stateMutability": "view",
      "type": "function"
    },
    {
      "constant": true,
      "inputs": [],
      "name": "getName",
      "outputs": [
        {
          "internalType": "string",
          "name": "",
          "type": "string"
        }
      ],
      "payable": false,
      "stateMutability": "view",
      "type": "function"
    },
    {
      "constant": true,
      "inputs": [],
      "name": "getAddress",
      "outputs": [
        {
          "internalType": "address",
          "name": "",
          "type": "address"
        }
      ],
      "payable": false,
      "stateMutability": "view",
      "type": "function"
    }
  ],
  "bytecode": "0x608060405233600260006101000a81548173ffffffffffffffffffffffffffffffffffffffff021916908373ffffffffffffffffffffffffffffffffffffffff16021790555060008060006101000a81548160ff021916908360ff160217905550610caf8061006f6000396000f3fe6080604052600436106100865760003560e01c80633ccfd60b116100595780633ccfd60b1461025857806360ea9e1c146102625780638da5cb5b1461026c578063a87430ba146102c3578063d0e30db01461039457610086565b806312065fe01461008b57806317d7de7c146100b6578063298daf5b1461014657806338cc483114610201575b600080fd5b34801561009757600080fd5b506100a061039e565b6040518082815260200191505060405180910390f35b3480156100c257600080fd5b506100cb61040a565b6040518080602001828103825283818151815260200191508051906020019080838360005b8381101561010b5780820151818401526020810190506100f0565b50505050905090810190601f1680156101385780820380516001836020036101000a031916815260200191505b509250505060405180910390f35b6101ff6004803603602081101561015c57600080fd5b810190808035906020019064010000000081111561017957600080fd5b82018360208201111561018b57600080fd5b803590602001918460018302840111640100000000831117156101ad57600080fd5b91908080601f016020809104026020016040519081016040528093929190818152602001838380828437600081840152601f19601f82011690508083019250505050505050919291929050505061050e565b005b34801561020d57600080fd5b506102166106cc565b604051808273ffffffffffffffffffffffffffffffffffffffff1673ffffffffffffffffffffffffffffffffffffffff16815260200191505060405180910390f35b6102606106d4565b005b61026a610838565b005b34801561027857600080fd5b506102816108dd565b604051808273ffffffffffffffffffffffffffffffffffffffff1673ffffffffffffffffffffffffffffffffffffffff16815260200191505060405180910390f35b3480156102cf57600080fd5b50610312600480360360208110156102e657600080fd5b81019080803573ffffffffffffffffffffffffffffffffffffffff169060200190929190505050610903565b6040518080602001838152602001828103825284818151815260200191508051906020019080838360005b8381101561035857808201518184015260208101905061033d565b50505050905090810190601f1680156103855780820380516001836020036101000a031916815260200191505b50935050505060405180910390f35b61039c6109bf565b005b600060016000600260009054906101000a900473ffffffffffffffffffffffffffffffffffffffff1673ffffffffffffffffffffffffffffffffffffffff1673ffffffffffffffffffffffffffffffffffffffff16815260200190815260200160002060010154905090565b606060016000600260009054906101000a900473ffffffffffffffffffffffffffffffffffffffff1673ffffffffffffffffffffffffffffffffffffffff1673ffffffffffffffffffffffffffffffffffffffff1681526020019081526020016000206000018054600181600116156101000203166002900480601f0160208091040260200160405190810160405280929190818152602001828054600181600116156101000203166002900480156105045780601f106104d957610100808354040283529160200191610504565b820191906000526020600020905b8154815290600101906020018083116104e757829003601f168201915b5050505050905090565b600034905067d02ab486cedc0000811015610574576040517f08c379a0000000000000000000000000000000000000000000000000000000008152600401808060200182810382526021815260200180610c356021913960400191505060405180910390fd5b33600260006101000a81548173ffffffffffffffffffffffffffffffffffffffff021916908373ffffffffffffffffffffffffffffffffffffffff1602179055508160016000600260009054906101000a900473ffffffffffffffffffffffffffffffffffffffff1673ffffffffffffffffffffffffffffffffffffffff1673ffffffffffffffffffffffffffffffffffffffff168152602001908152602001600020600001908051906020019061062d929190610b4c565b508060016000600260009054906101000a900473ffffffffffffffffffffffffffffffffffffffff1673ffffffffffffffffffffffffffffffffffffffff1673ffffffffffffffffffffffffffffffffffffffff1681526020019081526020016000206001018190555060008081819054906101000a900460ff168092919060010191906101000a81548160ff021916908360ff160217905550505050565b600033905090565b60003490506801158e460913d0000081111561073b576040517f08c379a0000000000000000000000000000000000000000000000000000000008152600401808060200182810382526022815260200180610c136022913960400191505060405180910390fd5b33600260006101000a81548173ffffffffffffffffffffffffffffffffffffffff021916908373ffffffffffffffffffffffffffffffffffffffff1602179055508060016000600260009054906101000a900473ffffffffffffffffffffffffffffffffffffffff1673ffffffffffffffffffffffffffffffffffffffff1673ffffffffffffffffffffffffffffffffffffffff168152602001908152602001600020600101600082825403925050819055503373ffffffffffffffffffffffffffffffffffffffff166108fc829081150290604051600060405180830381858888f19350505050158015610834573d6000803e3d6000fd5b5050565b6802b5e3af16b1880000600160003373ffffffffffffffffffffffffffffffffffffffff1673ffffffffffffffffffffffffffffffffffffffff16815260200190815260200160002060010154106108db576040517f08c379a0000000000000000000000000000000000000000000000000000000008152600401808060200182810382526025815260200180610c566025913960400191505060405180910390fd5b565b600260009054906101000a900473ffffffffffffffffffffffffffffffffffffffff1681565b6001602052806000526040600020600091509050806000018054600181600116156101000203166002900480601f0160208091040260200160405190810160405280929190818152602001828054600181600116156101000203166002900480156109af5780601f10610984576101008083540402835291602001916109af565b820191906000526020600020905b81548152906001019060200180831161099257829003601f168201915b5050505050908060010154905082565b60003490506801158e460913d00000811115610a26576040517f08c379a0000000000000000000000000000000000000000000000000000000008152600401808060200182810382526021815260200180610bf26021913960400191505060405180910390fd5b33600260006101000a81548173ffffffffffffffffffffffffffffffffffffffff021916908373ffffffffffffffffffffffffffffffffffffffff1602179055508060016000600260009054906101000a900473ffffffffffffffffffffffffffffffffffffffff1673ffffffffffffffffffffffffffffffffffffffff1673ffffffffffffffffffffffffffffffffffffffff16815260200190815260200160002060010160008282540192505081905550600260009054906101000a900473ffffffffffffffffffffffffffffffffffffffff1673ffffffffffffffffffffffffffffffffffffffff167fa8126f7572bb1fdeae5b5aa9ec126438b91f658a07873f009d041ae690f3a193826040518082815260200191505060405180910390a250565b828054600181600116156101000203166002900490600052602060002090601f016020900481019282601f10610b8d57805160ff1916838001178555610bbb565b82800160010185558215610bbb579182015b82811115610bba578251825591602001919060010190610b9f565b5b509050610bc89190610bcc565b5090565b610bee91905b80821115610bea576000816000905550600101610bd2565b5090565b9056fe43616e6e6f74206465706f736974206d6f7265207468616e20323020657468657243616e6e6f74207769746864726177206d6f7265207468616e203230206574686572313520657468657220696e697469616c2066756e64696e672072657175697265644163636f756e742062616c616e6365206973206d6f7265207468616e203530206574686572a265627a7a72315820d2f7c9f9196d6f3c95e75d8a4311239bac43ef2ea91a256ddedf9fb5ababd0b864736f6c634300050c0032",
  "source": "pragma solidity ^0.5.8;\r\n\r\ncontract SimpleBank {\r\n    uint8 private clientCount;\r\n    struct user{\r\n        string name;\r\n        uint balances;\r\n    }\r\n    mapping(address => user) public users; // contains a user for every addres\r\n    \r\n    address public owner;\r\n    event alert(string);\r\n\r\n  // Log the event about a deposit being made by an address and its amount\r\n    event LogDepositMade(address indexed accountAddress, uint amount);\r\n    \r\n    //fill the account with ether, not less than 15 ether\r\n    constructor() public payable {\r\n        // Set the owner to the creator of this contract\r\n        owner = msg.sender;\r\n        clientCount = 0;\r\n    }\r\n    \r\n    function createAccount(string memory _name) public payable{\r\n        uint amount = msg.value;\r\n        require(amount >= 15000000000000000000, \"15 ether initial funding required\");\r\n        owner = msg.sender;\r\n        users[owner].name = _name;\r\n        users[owner].balances = amount;\r\n        clientCount++;\r\n    }\r\n    \r\n    //add ether to account\r\n   function deposit() public payable {\r\n       uint deposit_amount = msg.value;\r\n\t\trequire(deposit_amount <= 20000000000000000000, \"Cannot deposit more than 20 ether\");\r\n        owner = msg.sender;\r\n       users[owner].balances += deposit_amount;\r\n        emit LogDepositMade(owner, deposit_amount);\r\n    }\r\n   \r\n    ///remove ether from contract\r\n    function withdraw() public payable {\r\n        uint withdraw_amount = msg.value;\r\n        // Limit withdrawal amount = 20 ether\r\n        require(withdraw_amount <= 20000000000000000000, \"Cannot withdraw more than 20 ether\");\r\n        owner = msg.sender;\r\n        users[owner].balances -= withdraw_amount;\r\n       \r\n        // Send the amount to the address that requested it\r\n        msg.sender.transfer(withdraw_amount);\r\n    }\r\n    \r\n    //check if balance is more than 50 ether\r\n    function verifyBal() public payable {\r\n        require(users[msg.sender].balances < 50000000000000000000, \"Account balance is more than 50 ether\");\r\n    }\r\n    \r\n    //check balance of the account\r\n    function getBalance() public view returns (uint) {\r\n        return users[owner].balances;\r\n    }\r\n    \r\n    function getName() public view returns (string memory) {\r\n        return users[owner].name;\r\n    }\r\n    \r\n    function getAddress() public view returns (address) {\r\n        return msg.sender;\r\n    }\r\n}",
  "sourcePath": "C:/Users/Wan Mai/Desktop/ethereum/contracts/SimpleBank.sol",
  "compiler": {
    "name": "solc",
    "version": "0.5.12+commit.7709ece9.Emscripten.clang"
  },
  "schemaVersion": "3.0.20",
  "updatedAt": "2020-01-08T12:13:44.417Z",
  "networkType": "ethereum",
  "devdoc": {
    "methods": {}
  },
  "userdoc": {
    "methods": {
      "withdraw()": {
        "notice": "remove ether from contract"
      }
    }
  }
}